{
	"contracts/SecureCounter.sol": {
		"SecureCounter": {
			"abi": [
				{
					"inputs": [],
					"stateMutability": "nonpayable",
					"type": "constructor"
				},
				{
					"anonymous": false,
					"inputs": [
						{
							"indexed": false,
							"internalType": "uint256",
							"name": "oldValue",
							"type": "uint256"
						},
						{
							"indexed": false,
							"internalType": "uint256",
							"name": "newValue",
							"type": "uint256"
						},
						{
							"indexed": false,
							"internalType": "uint256",
							"name": "amount",
							"type": "uint256"
						}
					],
					"name": "CounterDecremented",
					"type": "event"
				},
				{
					"anonymous": false,
					"inputs": [
						{
							"indexed": false,
							"internalType": "uint256",
							"name": "oldValue",
							"type": "uint256"
						},
						{
							"indexed": false,
							"internalType": "uint256",
							"name": "newValue",
							"type": "uint256"
						},
						{
							"indexed": false,
							"internalType": "uint256",
							"name": "amount",
							"type": "uint256"
						}
					],
					"name": "CounterIncremented",
					"type": "event"
				},
				{
					"inputs": [
						{
							"internalType": "uint256",
							"name": "amount",
							"type": "uint256"
						}
					],
					"name": "decrement",
					"outputs": [],
					"stateMutability": "nonpayable",
					"type": "function"
				},
				{
					"inputs": [],
					"name": "getCounter",
					"outputs": [
						{
							"internalType": "uint256",
							"name": "",
							"type": "uint256"
						}
					],
					"stateMutability": "view",
					"type": "function"
				},
				{
					"inputs": [
						{
							"internalType": "uint256",
							"name": "amount",
							"type": "uint256"
						}
					],
					"name": "increment",
					"outputs": [],
					"stateMutability": "nonpayable",
					"type": "function"
				},
				{
					"inputs": [],
					"name": "owner",
					"outputs": [
						{
							"internalType": "address",
							"name": "",
							"type": "address"
						}
					],
					"stateMutability": "view",
					"type": "function"
				}
			],
			"devdoc": {
				"kind": "dev",
				"methods": {},
				"version": 1
			},
			"evm": {
				"assembly": "    /* \"contracts/SecureCounter.sol\":61:1181  contract SecureCounter {... */\n  mstore(0x40, 0x80)\n    /* \"contracts/SecureCounter.sol\":444:495  constructor() {... */\n  callvalue\n  dup1\n  iszero\n  tag_1\n  jumpi\n  revert(0x00, 0x00)\ntag_1:\n  pop\n    /* \"contracts/SecureCounter.sol\":477:487  msg.sender */\n  caller\n    /* \"contracts/SecureCounter.sol\":469:474  owner */\n  0x01\n  0x00\n    /* \"contracts/SecureCounter.sol\":469:487  owner = msg.sender */\n  0x0100\n  exp\n  dup2\n  sload\n  dup2\n  0xffffffffffffffffffffffffffffffffffffffff\n  mul\n  not\n  and\n  swap1\n  dup4\n  0xffffffffffffffffffffffffffffffffffffffff\n  and\n  mul\n  or\n  swap1\n  sstore\n  pop\n    /* \"contracts/SecureCounter.sol\":61:1181  contract SecureCounter {... */\n  dataSize(sub_0)\n  dup1\n  dataOffset(sub_0)\n  0x00\n  codecopy\n  0x00\n  return\nstop\n\nsub_0: assembly {\n        /* \"contracts/SecureCounter.sol\":61:1181  contract SecureCounter {... */\n      mstore(0x40, 0x80)\n      callvalue\n      dup1\n      iszero\n      tag_1\n      jumpi\n      revert(0x00, 0x00)\n    tag_1:\n      pop\n      jumpi(tag_2, lt(calldatasize, 0x04))\n      shr(0xe0, calldataload(0x00))\n      dup1\n      0x3a9ebefd\n      eq\n      tag_3\n      jumpi\n      dup1\n      0x7cf5dab0\n      eq\n      tag_4\n      jumpi\n      dup1\n      0x8ada066e\n      eq\n      tag_5\n      jumpi\n      dup1\n      0x8da5cb5b\n      eq\n      tag_6\n      jumpi\n    tag_2:\n      revert(0x00, 0x00)\n        /* \"contracts/SecureCounter.sol\":850:1178  function decrement(uint256 amount) external onlyOwner {... */\n    tag_3:\n      tag_7\n      0x04\n      dup1\n      calldatasize\n      sub\n      dup2\n      add\n      swap1\n      tag_8\n      swap2\n      swap1\n      tag_9\n      jump\t// in\n    tag_8:\n      tag_10\n      jump\t// in\n    tag_7:\n      stop\n        /* \"contracts/SecureCounter.sol\":598:842  function increment(uint256 amount) external {... */\n    tag_4:\n      tag_11\n      0x04\n      dup1\n      calldatasize\n      sub\n      dup2\n      add\n      swap1\n      tag_12\n      swap2\n      swap1\n      tag_9\n      jump\t// in\n    tag_12:\n      tag_13\n      jump\t// in\n    tag_11:\n      stop\n        /* \"contracts/SecureCounter.sol\":503:590  function getCounter() external view returns (uint256) {... */\n    tag_5:\n      tag_14\n      tag_15\n      jump\t// in\n    tag_14:\n      mload(0x40)\n      tag_16\n      swap2\n      swap1\n      tag_17\n      jump\t// in\n    tag_16:\n      mload(0x40)\n      dup1\n      swap2\n      sub\n      swap1\n      return\n        /* \"contracts/SecureCounter.sol\":121:141  address public owner */\n    tag_6:\n      tag_18\n      tag_19\n      jump\t// in\n    tag_18:\n      mload(0x40)\n      tag_20\n      swap2\n      swap1\n      tag_21\n      jump\t// in\n    tag_20:\n      mload(0x40)\n      dup1\n      swap2\n      sub\n      swap1\n      return\n        /* \"contracts/SecureCounter.sol\":850:1178  function decrement(uint256 amount) external onlyOwner {... */\n    tag_10:\n        /* \"contracts/SecureCounter.sol\":372:377  owner */\n      0x01\n      0x00\n      swap1\n      sload\n      swap1\n      0x0100\n      exp\n      swap1\n      div\n      0xffffffffffffffffffffffffffffffffffffffff\n      and\n        /* \"contracts/SecureCounter.sol\":358:377  msg.sender == owner */\n      0xffffffffffffffffffffffffffffffffffffffff\n      and\n        /* \"contracts/SecureCounter.sol\":358:368  msg.sender */\n      caller\n        /* \"contracts/SecureCounter.sol\":358:377  msg.sender == owner */\n      0xffffffffffffffffffffffffffffffffffffffff\n      and\n      eq\n        /* \"contracts/SecureCounter.sol\":350:416  require(msg.sender == owner, \"Only owner can perform this action\") */\n      tag_23\n      jumpi\n      mload(0x40)\n      0x08c379a000000000000000000000000000000000000000000000000000000000\n      dup2\n      mstore\n      0x04\n      add\n      tag_24\n      swap1\n      tag_25\n      jump\t// in\n    tag_24:\n      mload(0x40)\n      dup1\n      swap2\n      sub\n      swap1\n      revert\n    tag_23:\n        /* \"contracts/SecureCounter.sol\":932:933  0 */\n      0x00\n        /* \"contracts/SecureCounter.sol\":923:929  amount */\n      dup2\n        /* \"contracts/SecureCounter.sol\":923:933  amount > 0 */\n      gt\n        /* \"contracts/SecureCounter.sol\":915:970  require(amount > 0, \"Amount must be greater than zero\") */\n      tag_27\n      jumpi\n      mload(0x40)\n      0x08c379a000000000000000000000000000000000000000000000000000000000\n      dup2\n      mstore\n      0x04\n      add\n      tag_28\n      swap1\n      tag_29\n      jump\t// in\n    tag_28:\n      mload(0x40)\n      dup1\n      swap2\n      sub\n      swap1\n      revert\n    tag_27:\n        /* \"contracts/SecureCounter.sol\":999:1006  counter */\n      sload(0x00)\n        /* \"contracts/SecureCounter.sol\":989:995  amount */\n      dup2\n        /* \"contracts/SecureCounter.sol\":989:1006  amount <= counter */\n      gt\n      iszero\n        /* \"contracts/SecureCounter.sol\":981:1042  require(amount <= counter, \"Decrement exceeds counter value\") */\n      tag_30\n      jumpi\n      mload(0x40)\n      0x08c379a000000000000000000000000000000000000000000000000000000000\n      dup2\n      mstore\n      0x04\n      add\n      tag_31\n      swap1\n      tag_32\n      jump\t// in\n    tag_31:\n      mload(0x40)\n      dup1\n      swap2\n      sub\n      swap1\n      revert\n    tag_30:\n        /* \"contracts/SecureCounter.sol\":1055:1071  uint256 oldValue */\n      0x00\n        /* \"contracts/SecureCounter.sol\":1074:1081  counter */\n      sload(0x00)\n        /* \"contracts/SecureCounter.sol\":1055:1081  uint256 oldValue = counter */\n      swap1\n      pop\n        /* \"contracts/SecureCounter.sol\":1103:1109  amount */\n      dup2\n        /* \"contracts/SecureCounter.sol\":1092:1099  counter */\n      0x00\n      0x00\n        /* \"contracts/SecureCounter.sol\":1092:1109  counter -= amount */\n      dup3\n      dup3\n      sload\n      tag_33\n      swap2\n      swap1\n      tag_34\n      jump\t// in\n    tag_33:\n      swap3\n      pop\n      pop\n      dup2\n      swap1\n      sstore\n      pop\n        /* \"contracts/SecureCounter.sol\":1125:1170  CounterDecremented(oldValue, counter, amount) */\n      0x92aeba54a6e224300169fe89c8e9eacfa8bf1a3e64c92afaf242d3ffdeeaf311\n        /* \"contracts/SecureCounter.sol\":1144:1152  oldValue */\n      dup2\n        /* \"contracts/SecureCounter.sol\":1154:1161  counter */\n      sload(0x00)\n        /* \"contracts/SecureCounter.sol\":1163:1169  amount */\n      dup5\n        /* \"contracts/SecureCounter.sol\":1125:1170  CounterDecremented(oldValue, counter, amount) */\n      mload(0x40)\n      tag_35\n      swap4\n      swap3\n      swap2\n      swap1\n      tag_36\n      jump\t// in\n    tag_35:\n      mload(0x40)\n      dup1\n      swap2\n      sub\n      swap1\n      log1\n        /* \"contracts/SecureCounter.sol\":904:1178  {... */\n      pop\n        /* \"contracts/SecureCounter.sol\":850:1178  function decrement(uint256 amount) external onlyOwner {... */\n      pop\n      jump\t// out\n        /* \"contracts/SecureCounter.sol\":598:842  function increment(uint256 amount) external {... */\n    tag_13:\n        /* \"contracts/SecureCounter.sol\":670:671  0 */\n      0x00\n        /* \"contracts/SecureCounter.sol\":661:667  amount */\n      dup2\n        /* \"contracts/SecureCounter.sol\":661:671  amount > 0 */\n      gt\n        /* \"contracts/SecureCounter.sol\":653:708  require(amount > 0, \"Amount must be greater than zero\") */\n      tag_38\n      jumpi\n      mload(0x40)\n      0x08c379a000000000000000000000000000000000000000000000000000000000\n      dup2\n      mstore\n      0x04\n      add\n      tag_39\n      swap1\n      tag_29\n      jump\t// in\n    tag_39:\n      mload(0x40)\n      dup1\n      swap2\n      sub\n      swap1\n      revert\n    tag_38:\n        /* \"contracts/SecureCounter.sol\":719:735  uint256 oldValue */\n      0x00\n        /* \"contracts/SecureCounter.sol\":738:745  counter */\n      sload(0x00)\n        /* \"contracts/SecureCounter.sol\":719:745  uint256 oldValue = counter */\n      swap1\n      pop\n        /* \"contracts/SecureCounter.sol\":767:773  amount */\n      dup2\n        /* \"contracts/SecureCounter.sol\":756:763  counter */\n      0x00\n      0x00\n        /* \"contracts/SecureCounter.sol\":756:773  counter += amount */\n      dup3\n      dup3\n      sload\n      tag_40\n      swap2\n      swap1\n      tag_41\n      jump\t// in\n    tag_40:\n      swap3\n      pop\n      pop\n      dup2\n      swap1\n      sstore\n      pop\n        /* \"contracts/SecureCounter.sol\":789:834  CounterIncremented(oldValue, counter, amount) */\n      0x1a87a966ac4153e0338fc357ddc3c9adf3d014f58974c7123204aa7394f6767d\n        /* \"contracts/SecureCounter.sol\":808:816  oldValue */\n      dup2\n        /* \"contracts/SecureCounter.sol\":818:825  counter */\n      sload(0x00)\n        /* \"contracts/SecureCounter.sol\":827:833  amount */\n      dup5\n        /* \"contracts/SecureCounter.sol\":789:834  CounterIncremented(oldValue, counter, amount) */\n      mload(0x40)\n      tag_42\n      swap4\n      swap3\n      swap2\n      swap1\n      tag_36\n      jump\t// in\n    tag_42:\n      mload(0x40)\n      dup1\n      swap2\n      sub\n      swap1\n      log1\n        /* \"contracts/SecureCounter.sol\":642:842  {... */\n      pop\n        /* \"contracts/SecureCounter.sol\":598:842  function increment(uint256 amount) external {... */\n      pop\n      jump\t// out\n        /* \"contracts/SecureCounter.sol\":503:590  function getCounter() external view returns (uint256) {... */\n    tag_15:\n        /* \"contracts/SecureCounter.sol\":548:555  uint256 */\n      0x00\n        /* \"contracts/SecureCounter.sol\":575:582  counter */\n      sload(0x00)\n        /* \"contracts/SecureCounter.sol\":568:582  return counter */\n      swap1\n      pop\n        /* \"contracts/SecureCounter.sol\":503:590  function getCounter() external view returns (uint256) {... */\n      swap1\n      jump\t// out\n        /* \"contracts/SecureCounter.sol\":121:141  address public owner */\n    tag_19:\n      0x01\n      0x00\n      swap1\n      sload\n      swap1\n      0x0100\n      exp\n      swap1\n      div\n      0xffffffffffffffffffffffffffffffffffffffff\n      and\n      dup2\n      jump\t// out\n        /* \"#utility.yul\":88:205   */\n    tag_45:\n        /* \"#utility.yul\":197:198   */\n      0x00\n        /* \"#utility.yul\":194:195   */\n      0x00\n        /* \"#utility.yul\":187:199   */\n      revert\n        /* \"#utility.yul\":334:411   */\n    tag_47:\n        /* \"#utility.yul\":371:378   */\n      0x00\n        /* \"#utility.yul\":400:405   */\n      dup2\n        /* \"#utility.yul\":389:405   */\n      swap1\n      pop\n        /* \"#utility.yul\":334:411   */\n      swap2\n      swap1\n      pop\n      jump\t// out\n        /* \"#utility.yul\":417:539   */\n    tag_48:\n        /* \"#utility.yul\":490:514   */\n      tag_68\n        /* \"#utility.yul\":508:513   */\n      dup2\n        /* \"#utility.yul\":490:514   */\n      tag_47\n      jump\t// in\n    tag_68:\n        /* \"#utility.yul\":483:488   */\n      dup2\n        /* \"#utility.yul\":480:515   */\n      eq\n        /* \"#utility.yul\":470:533   */\n      tag_69\n      jumpi\n        /* \"#utility.yul\":529:530   */\n      0x00\n        /* \"#utility.yul\":526:527   */\n      0x00\n        /* \"#utility.yul\":519:531   */\n      revert\n        /* \"#utility.yul\":470:533   */\n    tag_69:\n        /* \"#utility.yul\":417:539   */\n      pop\n      jump\t// out\n        /* \"#utility.yul\":545:684   */\n    tag_49:\n        /* \"#utility.yul\":591:596   */\n      0x00\n        /* \"#utility.yul\":629:635   */\n      dup2\n        /* \"#utility.yul\":616:636   */\n      calldataload\n        /* \"#utility.yul\":607:636   */\n      swap1\n      pop\n        /* \"#utility.yul\":645:678   */\n      tag_71\n        /* \"#utility.yul\":672:677   */\n      dup2\n        /* \"#utility.yul\":645:678   */\n      tag_48\n      jump\t// in\n    tag_71:\n        /* \"#utility.yul\":545:684   */\n      swap3\n      swap2\n      pop\n      pop\n      jump\t// out\n        /* \"#utility.yul\":690:1019   */\n    tag_9:\n        /* \"#utility.yul\":749:755   */\n      0x00\n        /* \"#utility.yul\":798:800   */\n      0x20\n        /* \"#utility.yul\":786:795   */\n      dup3\n        /* \"#utility.yul\":777:784   */\n      dup5\n        /* \"#utility.yul\":773:796   */\n      sub\n        /* \"#utility.yul\":769:801   */\n      slt\n        /* \"#utility.yul\":766:885   */\n      iszero\n      tag_73\n      jumpi\n        /* \"#utility.yul\":804:883   */\n      tag_74\n      tag_45\n      jump\t// in\n    tag_74:\n        /* \"#utility.yul\":766:885   */\n    tag_73:\n        /* \"#utility.yul\":924:925   */\n      0x00\n        /* \"#utility.yul\":949:1002   */\n      tag_75\n        /* \"#utility.yul\":994:1001   */\n      dup5\n        /* \"#utility.yul\":985:991   */\n      dup3\n        /* \"#utility.yul\":974:983   */\n      dup6\n        /* \"#utility.yul\":970:992   */\n      add\n        /* \"#utility.yul\":949:1002   */\n      tag_49\n      jump\t// in\n    tag_75:\n        /* \"#utility.yul\":939:1002   */\n      swap2\n      pop\n        /* \"#utility.yul\":895:1012   */\n      pop\n        /* \"#utility.yul\":690:1019   */\n      swap3\n      swap2\n      pop\n      pop\n      jump\t// out\n        /* \"#utility.yul\":1025:1143   */\n    tag_50:\n        /* \"#utility.yul\":1112:1136   */\n      tag_77\n        /* \"#utility.yul\":1130:1135   */\n      dup2\n        /* \"#utility.yul\":1112:1136   */\n      tag_47\n      jump\t// in\n    tag_77:\n        /* \"#utility.yul\":1107:1110   */\n      dup3\n        /* \"#utility.yul\":1100:1137   */\n      mstore\n        /* \"#utility.yul\":1025:1143   */\n      pop\n      pop\n      jump\t// out\n        /* \"#utility.yul\":1149:1371   */\n    tag_17:\n        /* \"#utility.yul\":1242:1246   */\n      0x00\n        /* \"#utility.yul\":1280:1282   */\n      0x20\n        /* \"#utility.yul\":1269:1278   */\n      dup3\n        /* \"#utility.yul\":1265:1283   */\n      add\n        /* \"#utility.yul\":1257:1283   */\n      swap1\n      pop\n        /* \"#utility.yul\":1293:1364   */\n      tag_79\n        /* \"#utility.yul\":1361:1362   */\n      0x00\n        /* \"#utility.yul\":1350:1359   */\n      dup4\n        /* \"#utility.yul\":1346:1363   */\n      add\n        /* \"#utility.yul\":1337:1343   */\n      dup5\n        /* \"#utility.yul\":1293:1364   */\n      tag_50\n      jump\t// in\n    tag_79:\n        /* \"#utility.yul\":1149:1371   */\n      swap3\n      swap2\n      pop\n      pop\n      jump\t// out\n        /* \"#utility.yul\":1377:1503   */\n    tag_51:\n        /* \"#utility.yul\":1414:1421   */\n      0x00\n        /* \"#utility.yul\":1454:1496   */\n      0xffffffffffffffffffffffffffffffffffffffff\n        /* \"#utility.yul\":1447:1452   */\n      dup3\n        /* \"#utility.yul\":1443:1497   */\n      and\n        /* \"#utility.yul\":1432:1497   */\n      swap1\n      pop\n        /* \"#utility.yul\":1377:1503   */\n      swap2\n      swap1\n      pop\n      jump\t// out\n        /* \"#utility.yul\":1509:1605   */\n    tag_52:\n        /* \"#utility.yul\":1546:1553   */\n      0x00\n        /* \"#utility.yul\":1575:1599   */\n      tag_82\n        /* \"#utility.yul\":1593:1598   */\n      dup3\n        /* \"#utility.yul\":1575:1599   */\n      tag_51\n      jump\t// in\n    tag_82:\n        /* \"#utility.yul\":1564:1599   */\n      swap1\n      pop\n        /* \"#utility.yul\":1509:1605   */\n      swap2\n      swap1\n      pop\n      jump\t// out\n        /* \"#utility.yul\":1611:1729   */\n    tag_53:\n        /* \"#utility.yul\":1698:1722   */\n      tag_84\n        /* \"#utility.yul\":1716:1721   */\n      dup2\n        /* \"#utility.yul\":1698:1722   */\n      tag_52\n      jump\t// in\n    tag_84:\n        /* \"#utility.yul\":1693:1696   */\n      dup3\n        /* \"#utility.yul\":1686:1723   */\n      mstore\n        /* \"#utility.yul\":1611:1729   */\n      pop\n      pop\n      jump\t// out\n        /* \"#utility.yul\":1735:1957   */\n    tag_21:\n        /* \"#utility.yul\":1828:1832   */\n      0x00\n        /* \"#utility.yul\":1866:1868   */\n      0x20\n        /* \"#utility.yul\":1855:1864   */\n      dup3\n        /* \"#utility.yul\":1851:1869   */\n      add\n        /* \"#utility.yul\":1843:1869   */\n      swap1\n      pop\n        /* \"#utility.yul\":1879:1950   */\n      tag_86\n        /* \"#utility.yul\":1947:1948   */\n      0x00\n        /* \"#utility.yul\":1936:1945   */\n      dup4\n        /* \"#utility.yul\":1932:1949   */\n      add\n        /* \"#utility.yul\":1923:1929   */\n      dup5\n        /* \"#utility.yul\":1879:1950   */\n      tag_53\n      jump\t// in\n    tag_86:\n        /* \"#utility.yul\":1735:1957   */\n      swap3\n      swap2\n      pop\n      pop\n      jump\t// out\n        /* \"#utility.yul\":1963:2132   */\n    tag_54:\n        /* \"#utility.yul\":2047:2058   */\n      0x00\n        /* \"#utility.yul\":2081:2087   */\n      dup3\n        /* \"#utility.yul\":2076:2079   */\n      dup3\n        /* \"#utility.yul\":2069:2088   */\n      mstore\n        /* \"#utility.yul\":2121:2125   */\n      0x20\n        /* \"#utility.yul\":2116:2119   */\n      dup3\n        /* \"#utility.yul\":2112:2126   */\n      add\n        /* \"#utility.yul\":2097:2126   */\n      swap1\n      pop\n        /* \"#utility.yul\":1963:2132   */\n      swap3\n      swap2\n      pop\n      pop\n      jump\t// out\n        /* \"#utility.yul\":2138:2359   */\n    tag_55:\n        /* \"#utility.yul\":2278:2312   */\n      0x4f6e6c79206f776e65722063616e20706572666f726d20746869732061637469\n        /* \"#utility.yul\":2274:2275   */\n      0x00\n        /* \"#utility.yul\":2266:2272   */\n      dup3\n        /* \"#utility.yul\":2262:2276   */\n      add\n        /* \"#utility.yul\":2255:2313   */\n      mstore\n        /* \"#utility.yul\":2347:2351   */\n      0x6f6e000000000000000000000000000000000000000000000000000000000000\n        /* \"#utility.yul\":2342:2344   */\n      0x20\n        /* \"#utility.yul\":2334:2340   */\n      dup3\n        /* \"#utility.yul\":2330:2345   */\n      add\n        /* \"#utility.yul\":2323:2352   */\n      mstore\n        /* \"#utility.yul\":2138:2359   */\n      pop\n      jump\t// out\n        /* \"#utility.yul\":2365:2731   */\n    tag_56:\n        /* \"#utility.yul\":2507:2510   */\n      0x00\n        /* \"#utility.yul\":2528:2595   */\n      tag_90\n        /* \"#utility.yul\":2592:2594   */\n      0x22\n        /* \"#utility.yul\":2587:2590   */\n      dup4\n        /* \"#utility.yul\":2528:2595   */\n      tag_54\n      jump\t// in\n    tag_90:\n        /* \"#utility.yul\":2521:2595   */\n      swap2\n      pop\n        /* \"#utility.yul\":2604:2697   */\n      tag_91\n        /* \"#utility.yul\":2693:2696   */\n      dup3\n        /* \"#utility.yul\":2604:2697   */\n      tag_55\n      jump\t// in\n    tag_91:\n        /* \"#utility.yul\":2722:2724   */\n      0x40\n        /* \"#utility.yul\":2717:2720   */\n      dup3\n        /* \"#utility.yul\":2713:2725   */\n      add\n        /* \"#utility.yul\":2706:2725   */\n      swap1\n      pop\n        /* \"#utility.yul\":2365:2731   */\n      swap2\n      swap1\n      pop\n      jump\t// out\n        /* \"#utility.yul\":2737:3156   */\n    tag_25:\n        /* \"#utility.yul\":2903:2907   */\n      0x00\n        /* \"#utility.yul\":2941:2943   */\n      0x20\n        /* \"#utility.yul\":2930:2939   */\n      dup3\n        /* \"#utility.yul\":2926:2944   */\n      add\n        /* \"#utility.yul\":2918:2944   */\n      swap1\n      pop\n        /* \"#utility.yul\":2990:2999   */\n      dup2\n        /* \"#utility.yul\":2984:2988   */\n      dup2\n        /* \"#utility.yul\":2980:3000   */\n      sub\n        /* \"#utility.yul\":2976:2977   */\n      0x00\n        /* \"#utility.yul\":2965:2974   */\n      dup4\n        /* \"#utility.yul\":2961:2978   */\n      add\n        /* \"#utility.yul\":2954:3001   */\n      mstore\n        /* \"#utility.yul\":3018:3149   */\n      tag_93\n        /* \"#utility.yul\":3144:3148   */\n      dup2\n        /* \"#utility.yul\":3018:3149   */\n      tag_56\n      jump\t// in\n    tag_93:\n        /* \"#utility.yul\":3010:3149   */\n      swap1\n      pop\n        /* \"#utility.yul\":2737:3156   */\n      swap2\n      swap1\n      pop\n      jump\t// out\n        /* \"#utility.yul\":3162:3344   */\n    tag_57:\n        /* \"#utility.yul\":3302:3336   */\n      0x416d6f756e74206d7573742062652067726561746572207468616e207a65726f\n        /* \"#utility.yul\":3298:3299   */\n      0x00\n        /* \"#utility.yul\":3290:3296   */\n      dup3\n        /* \"#utility.yul\":3286:3300   */\n      add\n        /* \"#utility.yul\":3279:3337   */\n      mstore\n        /* \"#utility.yul\":3162:3344   */\n      pop\n      jump\t// out\n        /* \"#utility.yul\":3350:3716   */\n    tag_58:\n        /* \"#utility.yul\":3492:3495   */\n      0x00\n        /* \"#utility.yul\":3513:3580   */\n      tag_96\n        /* \"#utility.yul\":3577:3579   */\n      0x20\n        /* \"#utility.yul\":3572:3575   */\n      dup4\n        /* \"#utility.yul\":3513:3580   */\n      tag_54\n      jump\t// in\n    tag_96:\n        /* \"#utility.yul\":3506:3580   */\n      swap2\n      pop\n        /* \"#utility.yul\":3589:3682   */\n      tag_97\n        /* \"#utility.yul\":3678:3681   */\n      dup3\n        /* \"#utility.yul\":3589:3682   */\n      tag_57\n      jump\t// in\n    tag_97:\n        /* \"#utility.yul\":3707:3709   */\n      0x20\n        /* \"#utility.yul\":3702:3705   */\n      dup3\n        /* \"#utility.yul\":3698:3710   */\n      add\n        /* \"#utility.yul\":3691:3710   */\n      swap1\n      pop\n        /* \"#utility.yul\":3350:3716   */\n      swap2\n      swap1\n      pop\n      jump\t// out\n        /* \"#utility.yul\":3722:4141   */\n    tag_29:\n        /* \"#utility.yul\":3888:3892   */\n      0x00\n        /* \"#utility.yul\":3926:3928   */\n      0x20\n        /* \"#utility.yul\":3915:3924   */\n      dup3\n        /* \"#utility.yul\":3911:3929   */\n      add\n        /* \"#utility.yul\":3903:3929   */\n      swap1\n      pop\n        /* \"#utility.yul\":3975:3984   */\n      dup2\n        /* \"#utility.yul\":3969:3973   */\n      dup2\n        /* \"#utility.yul\":3965:3985   */\n      sub\n        /* \"#utility.yul\":3961:3962   */\n      0x00\n        /* \"#utility.yul\":3950:3959   */\n      dup4\n        /* \"#utility.yul\":3946:3963   */\n      add\n        /* \"#utility.yul\":3939:3986   */\n      mstore\n        /* \"#utility.yul\":4003:4134   */\n      tag_99\n        /* \"#utility.yul\":4129:4133   */\n      dup2\n        /* \"#utility.yul\":4003:4134   */\n      tag_58\n      jump\t// in\n    tag_99:\n        /* \"#utility.yul\":3995:4134   */\n      swap1\n      pop\n        /* \"#utility.yul\":3722:4141   */\n      swap2\n      swap1\n      pop\n      jump\t// out\n        /* \"#utility.yul\":4147:4328   */\n    tag_59:\n        /* \"#utility.yul\":4287:4320   */\n      0x44656372656d656e74206578636565647320636f756e7465722076616c756500\n        /* \"#utility.yul\":4283:4284   */\n      0x00\n        /* \"#utility.yul\":4275:4281   */\n      dup3\n        /* \"#utility.yul\":4271:4285   */\n      add\n        /* \"#utility.yul\":4264:4321   */\n      mstore\n        /* \"#utility.yul\":4147:4328   */\n      pop\n      jump\t// out\n        /* \"#utility.yul\":4334:4700   */\n    tag_60:\n        /* \"#utility.yul\":4476:4479   */\n      0x00\n        /* \"#utility.yul\":4497:4564   */\n      tag_102\n        /* \"#utility.yul\":4561:4563   */\n      0x1f\n        /* \"#utility.yul\":4556:4559   */\n      dup4\n        /* \"#utility.yul\":4497:4564   */\n      tag_54\n      jump\t// in\n    tag_102:\n        /* \"#utility.yul\":4490:4564   */\n      swap2\n      pop\n        /* \"#utility.yul\":4573:4666   */\n      tag_103\n        /* \"#utility.yul\":4662:4665   */\n      dup3\n        /* \"#utility.yul\":4573:4666   */\n      tag_59\n      jump\t// in\n    tag_103:\n        /* \"#utility.yul\":4691:4693   */\n      0x20\n        /* \"#utility.yul\":4686:4689   */\n      dup3\n        /* \"#utility.yul\":4682:4694   */\n      add\n        /* \"#utility.yul\":4675:4694   */\n      swap1\n      pop\n        /* \"#utility.yul\":4334:4700   */\n      swap2\n      swap1\n      pop\n      jump\t// out\n        /* \"#utility.yul\":4706:5125   */\n    tag_32:\n        /* \"#utility.yul\":4872:4876   */\n      0x00\n        /* \"#utility.yul\":4910:4912   */\n      0x20\n        /* \"#utility.yul\":4899:4908   */\n      dup3\n        /* \"#utility.yul\":4895:4913   */\n      add\n        /* \"#utility.yul\":4887:4913   */\n      swap1\n      pop\n        /* \"#utility.yul\":4959:4968   */\n      dup2\n        /* \"#utility.yul\":4953:4957   */\n      dup2\n        /* \"#utility.yul\":4949:4969   */\n      sub\n        /* \"#utility.yul\":4945:4946   */\n      0x00\n        /* \"#utility.yul\":4934:4943   */\n      dup4\n        /* \"#utility.yul\":4930:4947   */\n      add\n        /* \"#utility.yul\":4923:4970   */\n      mstore\n        /* \"#utility.yul\":4987:5118   */\n      tag_105\n        /* \"#utility.yul\":5113:5117   */\n      dup2\n        /* \"#utility.yul\":4987:5118   */\n      tag_60\n      jump\t// in\n    tag_105:\n        /* \"#utility.yul\":4979:5118   */\n      swap1\n      pop\n        /* \"#utility.yul\":4706:5125   */\n      swap2\n      swap1\n      pop\n      jump\t// out\n        /* \"#utility.yul\":5131:5311   */\n    tag_61:\n        /* \"#utility.yul\":5179:5256   */\n      0x4e487b7100000000000000000000000000000000000000000000000000000000\n        /* \"#utility.yul\":5176:5177   */\n      0x00\n        /* \"#utility.yul\":5169:5257   */\n      mstore\n        /* \"#utility.yul\":5276:5280   */\n      0x11\n        /* \"#utility.yul\":5273:5274   */\n      0x04\n        /* \"#utility.yul\":5266:5281   */\n      mstore\n        /* \"#utility.yul\":5300:5304   */\n      0x24\n        /* \"#utility.yul\":5297:5298   */\n      0x00\n        /* \"#utility.yul\":5290:5305   */\n      revert\n        /* \"#utility.yul\":5317:5511   */\n    tag_34:\n        /* \"#utility.yul\":5357:5361   */\n      0x00\n        /* \"#utility.yul\":5377:5397   */\n      tag_108\n        /* \"#utility.yul\":5395:5396   */\n      dup3\n        /* \"#utility.yul\":5377:5397   */\n      tag_47\n      jump\t// in\n    tag_108:\n        /* \"#utility.yul\":5372:5397   */\n      swap2\n      pop\n        /* \"#utility.yul\":5411:5431   */\n      tag_109\n        /* \"#utility.yul\":5429:5430   */\n      dup4\n        /* \"#utility.yul\":5411:5431   */\n      tag_47\n      jump\t// in\n    tag_109:\n        /* \"#utility.yul\":5406:5431   */\n      swap3\n      pop\n        /* \"#utility.yul\":5455:5456   */\n      dup3\n        /* \"#utility.yul\":5452:5453   */\n      dup3\n        /* \"#utility.yul\":5448:5457   */\n      sub\n        /* \"#utility.yul\":5440:5457   */\n      swap1\n      pop\n        /* \"#utility.yul\":5479:5480   */\n      dup2\n        /* \"#utility.yul\":5473:5477   */\n      dup2\n        /* \"#utility.yul\":5470:5481   */\n      gt\n        /* \"#utility.yul\":5467:5504   */\n      iszero\n      tag_110\n      jumpi\n        /* \"#utility.yul\":5484:5502   */\n      tag_111\n      tag_61\n      jump\t// in\n    tag_111:\n        /* \"#utility.yul\":5467:5504   */\n    tag_110:\n        /* \"#utility.yul\":5317:5511   */\n      swap3\n      swap2\n      pop\n      pop\n      jump\t// out\n        /* \"#utility.yul\":5517:5959   */\n    tag_36:\n        /* \"#utility.yul\":5666:5670   */\n      0x00\n        /* \"#utility.yul\":5704:5706   */\n      0x60\n        /* \"#utility.yul\":5693:5702   */\n      dup3\n        /* \"#utility.yul\":5689:5707   */\n      add\n        /* \"#utility.yul\":5681:5707   */\n      swap1\n      pop\n        /* \"#utility.yul\":5717:5788   */\n      tag_113\n        /* \"#utility.yul\":5785:5786   */\n      0x00\n        /* \"#utility.yul\":5774:5783   */\n      dup4\n        /* \"#utility.yul\":5770:5787   */\n      add\n        /* \"#utility.yul\":5761:5767   */\n      dup7\n        /* \"#utility.yul\":5717:5788   */\n      tag_50\n      jump\t// in\n    tag_113:\n        /* \"#utility.yul\":5798:5870   */\n      tag_114\n        /* \"#utility.yul\":5866:5868   */\n      0x20\n        /* \"#utility.yul\":5855:5864   */\n      dup4\n        /* \"#utility.yul\":5851:5869   */\n      add\n        /* \"#utility.yul\":5842:5848   */\n      dup6\n        /* \"#utility.yul\":5798:5870   */\n      tag_50\n      jump\t// in\n    tag_114:\n        /* \"#utility.yul\":5880:5952   */\n      tag_115\n        /* \"#utility.yul\":5948:5950   */\n      0x40\n        /* \"#utility.yul\":5937:5946   */\n      dup4\n        /* \"#utility.yul\":5933:5951   */\n      add\n        /* \"#utility.yul\":5924:5930   */\n      dup5\n        /* \"#utility.yul\":5880:5952   */\n      tag_50\n      jump\t// in\n    tag_115:\n        /* \"#utility.yul\":5517:5959   */\n      swap5\n      swap4\n      pop\n      pop\n      pop\n      pop\n      jump\t// out\n        /* \"#utility.yul\":5965:6156   */\n    tag_41:\n        /* \"#utility.yul\":6005:6008   */\n      0x00\n        /* \"#utility.yul\":6024:6044   */\n      tag_117\n        /* \"#utility.yul\":6042:6043   */\n      dup3\n        /* \"#utility.yul\":6024:6044   */\n      tag_47\n      jump\t// in\n    tag_117:\n        /* \"#utility.yul\":6019:6044   */\n      swap2\n      pop\n        /* \"#utility.yul\":6058:6078   */\n      tag_118\n        /* \"#utility.yul\":6076:6077   */\n      dup4\n        /* \"#utility.yul\":6058:6078   */\n      tag_47\n      jump\t// in\n    tag_118:\n        /* \"#utility.yul\":6053:6078   */\n      swap3\n      pop\n        /* \"#utility.yul\":6101:6102   */\n      dup3\n        /* \"#utility.yul\":6098:6099   */\n      dup3\n        /* \"#utility.yul\":6094:6103   */\n      add\n        /* \"#utility.yul\":6087:6103   */\n      swap1\n      pop\n        /* \"#utility.yul\":6122:6125   */\n      dup1\n        /* \"#utility.yul\":6119:6120   */\n      dup3\n        /* \"#utility.yul\":6116:6126   */\n      gt\n        /* \"#utility.yul\":6113:6149   */\n      iszero\n      tag_119\n      jumpi\n        /* \"#utility.yul\":6129:6147   */\n      tag_120\n      tag_61\n      jump\t// in\n    tag_120:\n        /* \"#utility.yul\":6113:6149   */\n    tag_119:\n        /* \"#utility.yul\":5965:6156   */\n      swap3\n      swap2\n      pop\n      pop\n      jump\t// out\n\n    auxdata: 0xa26469706673582212207aa495cbaaaefc9ec99455f866bad12e9668a105974c63b81024b1996f691ae764736f6c63430008210033\n}\n",
				"bytecode": {
					"linkReferences": {},
					"object": "6080604052348015600e575f5ffd5b503360015f6101000a81548173ffffffffffffffffffffffffffffffffffffffff021916908373ffffffffffffffffffffffffffffffffffffffff16021790555061064c8061005c5f395ff3fe608060405234801561000f575f5ffd5b506004361061004a575f3560e01c80633a9ebefd1461004e5780637cf5dab01461006a5780638ada066e146100865780638da5cb5b146100a4575b5f5ffd5b61006860048036038101906100639190610335565b6100c2565b005b610084600480360381019061007f9190610335565b610233565b005b61008e6102d1565b60405161009b919061036f565b60405180910390f35b6100ac6102d9565b6040516100b991906103c7565b60405180910390f35b60015f9054906101000a900473ffffffffffffffffffffffffffffffffffffffff1673ffffffffffffffffffffffffffffffffffffffff163373ffffffffffffffffffffffffffffffffffffffff1614610151576040517f08c379a000000000000000000000000000000000000000000000000000000000815260040161014890610460565b60405180910390fd5b5f8111610193576040517f08c379a000000000000000000000000000000000000000000000000000000000815260040161018a906104c8565b60405180910390fd5b5f548111156101d7576040517f08c379a00000000000000000000000000000000000000000000000000000000081526004016101ce90610530565b60405180910390fd5b5f5f549050815f5f8282546101ec919061057b565b925050819055507f92aeba54a6e224300169fe89c8e9eacfa8bf1a3e64c92afaf242d3ffdeeaf311815f5484604051610227939291906105ae565b60405180910390a15050565b5f8111610275576040517f08c379a000000000000000000000000000000000000000000000000000000000815260040161026c906104c8565b60405180910390fd5b5f5f549050815f5f82825461028a91906105e3565b925050819055507f1a87a966ac4153e0338fc357ddc3c9adf3d014f58974c7123204aa7394f6767d815f54846040516102c5939291906105ae565b60405180910390a15050565b5f5f54905090565b60015f9054906101000a900473ffffffffffffffffffffffffffffffffffffffff1681565b5f5ffd5b5f819050919050565b61031481610302565b811461031e575f5ffd5b50565b5f8135905061032f8161030b565b92915050565b5f6020828403121561034a576103496102fe565b5b5f61035784828501610321565b91505092915050565b61036981610302565b82525050565b5f6020820190506103825f830184610360565b92915050565b5f73ffffffffffffffffffffffffffffffffffffffff82169050919050565b5f6103b182610388565b9050919050565b6103c1816103a7565b82525050565b5f6020820190506103da5f8301846103b8565b92915050565b5f82825260208201905092915050565b7f4f6e6c79206f776e65722063616e20706572666f726d207468697320616374695f8201527f6f6e000000000000000000000000000000000000000000000000000000000000602082015250565b5f61044a6022836103e0565b9150610455826103f0565b604082019050919050565b5f6020820190508181035f8301526104778161043e565b9050919050565b7f416d6f756e74206d7573742062652067726561746572207468616e207a65726f5f82015250565b5f6104b26020836103e0565b91506104bd8261047e565b602082019050919050565b5f6020820190508181035f8301526104df816104a6565b9050919050565b7f44656372656d656e74206578636565647320636f756e7465722076616c7565005f82015250565b5f61051a601f836103e0565b9150610525826104e6565b602082019050919050565b5f6020820190508181035f8301526105478161050e565b9050919050565b7f4e487b71000000000000000000000000000000000000000000000000000000005f52601160045260245ffd5b5f61058582610302565b915061059083610302565b92508282039050818111156105a8576105a761054e565b5b92915050565b5f6060820190506105c15f830186610360565b6105ce6020830185610360565b6105db6040830184610360565b949350505050565b5f6105ed82610302565b91506105f883610302565b92508282019050808211156106105761060f61054e565b5b9291505056fea26469706673582212207aa495cbaaaefc9ec99455f866bad12e9668a105974c63b81024b1996f691ae764736f6c63430008210033",
					"opcodes": "PUSH1 0x80 PUSH1 0x40 MSTORE CALLVALUE DUP1 ISZERO PUSH1 0xE JUMPI PUSH0 PUSH0 REVERT JUMPDEST POP CALLER PUSH1 0x1 PUSH0 PUSH2 0x100 EXP DUP2 SLOAD DUP2 PUSH20 0xFFFFFFFFFFFFFFFFFFFFFFFFFFFFFFFFFFFFFFFF MUL NOT AND SWAP1 DUP4 PUSH20 0xFFFFFFFFFFFFFFFFFFFFFFFFFFFFFFFFFFFFFFFF AND MUL OR SWAP1 SSTORE POP PUSH2 0x64C DUP1 PUSH2 0x5C PUSH0 CODECOPY PUSH0 RETURN INVALID PUSH1 0x80 PUSH1 0x40 MSTORE CALLVALUE DUP1 ISZERO PUSH2 0xF JUMPI PUSH0 PUSH0 REVERT JUMPDEST POP PUSH1 0x4 CALLDATASIZE LT PUSH2 0x4A JUMPI PUSH0 CALLDATALOAD PUSH1 0xE0 SHR DUP1 PUSH4 0x3A9EBEFD EQ PUSH2 0x4E JUMPI DUP1 PUSH4 0x7CF5DAB0 EQ PUSH2 0x6A JUMPI DUP1 PUSH4 0x8ADA066E EQ PUSH2 0x86 JUMPI DUP1 PUSH4 0x8DA5CB5B EQ PUSH2 0xA4 JUMPI JUMPDEST PUSH0 PUSH0 REVERT JUMPDEST PUSH2 0x68 PUSH1 0x4 DUP1 CALLDATASIZE SUB DUP2 ADD SWAP1 PUSH2 0x63 SWAP2 SWAP1 PUSH2 0x335 JUMP JUMPDEST PUSH2 0xC2 JUMP JUMPDEST STOP JUMPDEST PUSH2 0x84 PUSH1 0x4 DUP1 CALLDATASIZE SUB DUP2 ADD SWAP1 PUSH2 0x7F SWAP2 SWAP1 PUSH2 0x335 JUMP JUMPDEST PUSH2 0x233 JUMP JUMPDEST STOP JUMPDEST PUSH2 0x8E PUSH2 0x2D1 JUMP JUMPDEST PUSH1 0x40 MLOAD PUSH2 0x9B SWAP2 SWAP1 PUSH2 0x36F JUMP JUMPDEST PUSH1 0x40 MLOAD DUP1 SWAP2 SUB SWAP1 RETURN JUMPDEST PUSH2 0xAC PUSH2 0x2D9 JUMP JUMPDEST PUSH1 0x40 MLOAD PUSH2 0xB9 SWAP2 SWAP1 PUSH2 0x3C7 JUMP JUMPDEST PUSH1 0x40 MLOAD DUP1 SWAP2 SUB SWAP1 RETURN JUMPDEST PUSH1 0x1 PUSH0 SWAP1 SLOAD SWAP1 PUSH2 0x100 EXP SWAP1 DIV PUSH20 0xFFFFFFFFFFFFFFFFFFFFFFFFFFFFFFFFFFFFFFFF AND PUSH20 0xFFFFFFFFFFFFFFFFFFFFFFFFFFFFFFFFFFFFFFFF AND CALLER PUSH20 0xFFFFFFFFFFFFFFFFFFFFFFFFFFFFFFFFFFFFFFFF AND EQ PUSH2 0x151 JUMPI PUSH1 0x40 MLOAD PUSH32 0x8C379A000000000000000000000000000000000000000000000000000000000 DUP2 MSTORE PUSH1 0x4 ADD PUSH2 0x148 SWAP1 PUSH2 0x460 JUMP JUMPDEST PUSH1 0x40 MLOAD DUP1 SWAP2 SUB SWAP1 REVERT JUMPDEST PUSH0 DUP2 GT PUSH2 0x193 JUMPI PUSH1 0x40 MLOAD PUSH32 0x8C379A000000000000000000000000000000000000000000000000000000000 DUP2 MSTORE PUSH1 0x4 ADD PUSH2 0x18A SWAP1 PUSH2 0x4C8 JUMP JUMPDEST PUSH1 0x40 MLOAD DUP1 SWAP2 SUB SWAP1 REVERT JUMPDEST PUSH0 SLOAD DUP2 GT ISZERO PUSH2 0x1D7 JUMPI PUSH1 0x40 MLOAD PUSH32 0x8C379A000000000000000000000000000000000000000000000000000000000 DUP2 MSTORE PUSH1 0x4 ADD PUSH2 0x1CE SWAP1 PUSH2 0x530 JUMP JUMPDEST PUSH1 0x40 MLOAD DUP1 SWAP2 SUB SWAP1 REVERT JUMPDEST PUSH0 PUSH0 SLOAD SWAP1 POP DUP2 PUSH0 PUSH0 DUP3 DUP3 SLOAD PUSH2 0x1EC SWAP2 SWAP1 PUSH2 0x57B JUMP JUMPDEST SWAP3 POP POP DUP2 SWAP1 SSTORE POP PUSH32 0x92AEBA54A6E224300169FE89C8E9EACFA8BF1A3E64C92AFAF242D3FFDEEAF311 DUP2 PUSH0 SLOAD DUP5 PUSH1 0x40 MLOAD PUSH2 0x227 SWAP4 SWAP3 SWAP2 SWAP1 PUSH2 0x5AE JUMP JUMPDEST PUSH1 0x40 MLOAD DUP1 SWAP2 SUB SWAP1 LOG1 POP POP JUMP JUMPDEST PUSH0 DUP2 GT PUSH2 0x275 JUMPI PUSH1 0x40 MLOAD PUSH32 0x8C379A000000000000000000000000000000000000000000000000000000000 DUP2 MSTORE PUSH1 0x4 ADD PUSH2 0x26C SWAP1 PUSH2 0x4C8 JUMP JUMPDEST PUSH1 0x40 MLOAD DUP1 SWAP2 SUB SWAP1 REVERT JUMPDEST PUSH0 PUSH0 SLOAD SWAP1 POP DUP2 PUSH0 PUSH0 DUP3 DUP3 SLOAD PUSH2 0x28A SWAP2 SWAP1 PUSH2 0x5E3 JUMP JUMPDEST SWAP3 POP POP DUP2 SWAP1 SSTORE POP PUSH32 0x1A87A966AC4153E0338FC357DDC3C9ADF3D014F58974C7123204AA7394F6767D DUP2 PUSH0 SLOAD DUP5 PUSH1 0x40 MLOAD PUSH2 0x2C5 SWAP4 SWAP3 SWAP2 SWAP1 PUSH2 0x5AE JUMP JUMPDEST PUSH1 0x40 MLOAD DUP1 SWAP2 SUB SWAP1 LOG1 POP POP JUMP JUMPDEST PUSH0 PUSH0 SLOAD SWAP1 POP SWAP1 JUMP JUMPDEST PUSH1 0x1 PUSH0 SWAP1 SLOAD SWAP1 PUSH2 0x100 EXP SWAP1 DIV PUSH20 0xFFFFFFFFFFFFFFFFFFFFFFFFFFFFFFFFFFFFFFFF AND DUP2 JUMP JUMPDEST PUSH0 PUSH0 REVERT JUMPDEST PUSH0 DUP2 SWAP1 POP SWAP2 SWAP1 POP JUMP JUMPDEST PUSH2 0x314 DUP2 PUSH2 0x302 JUMP JUMPDEST DUP2 EQ PUSH2 0x31E JUMPI PUSH0 PUSH0 REVERT JUMPDEST POP JUMP JUMPDEST PUSH0 DUP2 CALLDATALOAD SWAP1 POP PUSH2 0x32F DUP2 PUSH2 0x30B JUMP JUMPDEST SWAP3 SWAP2 POP POP JUMP JUMPDEST PUSH0 PUSH1 0x20 DUP3 DUP5 SUB SLT ISZERO PUSH2 0x34A JUMPI PUSH2 0x349 PUSH2 0x2FE JUMP JUMPDEST JUMPDEST PUSH0 PUSH2 0x357 DUP5 DUP3 DUP6 ADD PUSH2 0x321 JUMP JUMPDEST SWAP2 POP POP SWAP3 SWAP2 POP POP JUMP JUMPDEST PUSH2 0x369 DUP2 PUSH2 0x302 JUMP JUMPDEST DUP3 MSTORE POP POP JUMP JUMPDEST PUSH0 PUSH1 0x20 DUP3 ADD SWAP1 POP PUSH2 0x382 PUSH0 DUP4 ADD DUP5 PUSH2 0x360 JUMP JUMPDEST SWAP3 SWAP2 POP POP JUMP JUMPDEST PUSH0 PUSH20 0xFFFFFFFFFFFFFFFFFFFFFFFFFFFFFFFFFFFFFFFF DUP3 AND SWAP1 POP SWAP2 SWAP1 POP JUMP JUMPDEST PUSH0 PUSH2 0x3B1 DUP3 PUSH2 0x388 JUMP JUMPDEST SWAP1 POP SWAP2 SWAP1 POP JUMP JUMPDEST PUSH2 0x3C1 DUP2 PUSH2 0x3A7 JUMP JUMPDEST DUP3 MSTORE POP POP JUMP JUMPDEST PUSH0 PUSH1 0x20 DUP3 ADD SWAP1 POP PUSH2 0x3DA PUSH0 DUP4 ADD DUP5 PUSH2 0x3B8 JUMP JUMPDEST SWAP3 SWAP2 POP POP JUMP JUMPDEST PUSH0 DUP3 DUP3 MSTORE PUSH1 0x20 DUP3 ADD SWAP1 POP SWAP3 SWAP2 POP POP JUMP JUMPDEST PUSH32 0x4F6E6C79206F776E65722063616E20706572666F726D20746869732061637469 PUSH0 DUP3 ADD MSTORE PUSH32 0x6F6E000000000000000000000000000000000000000000000000000000000000 PUSH1 0x20 DUP3 ADD MSTORE POP JUMP JUMPDEST PUSH0 PUSH2 0x44A PUSH1 0x22 DUP4 PUSH2 0x3E0 JUMP JUMPDEST SWAP2 POP PUSH2 0x455 DUP3 PUSH2 0x3F0 JUMP JUMPDEST PUSH1 0x40 DUP3 ADD SWAP1 POP SWAP2 SWAP1 POP JUMP JUMPDEST PUSH0 PUSH1 0x20 DUP3 ADD SWAP1 POP DUP2 DUP2 SUB PUSH0 DUP4 ADD MSTORE PUSH2 0x477 DUP2 PUSH2 0x43E JUMP JUMPDEST SWAP1 POP SWAP2 SWAP1 POP JUMP JUMPDEST PUSH32 0x416D6F756E74206D7573742062652067726561746572207468616E207A65726F PUSH0 DUP3 ADD MSTORE POP JUMP JUMPDEST PUSH0 PUSH2 0x4B2 PUSH1 0x20 DUP4 PUSH2 0x3E0 JUMP JUMPDEST SWAP2 POP PUSH2 0x4BD DUP3 PUSH2 0x47E JUMP JUMPDEST PUSH1 0x20 DUP3 ADD SWAP1 POP SWAP2 SWAP1 POP JUMP JUMPDEST PUSH0 PUSH1 0x20 DUP3 ADD SWAP1 POP DUP2 DUP2 SUB PUSH0 DUP4 ADD MSTORE PUSH2 0x4DF DUP2 PUSH2 0x4A6 JUMP JUMPDEST SWAP1 POP SWAP2 SWAP1 POP JUMP JUMPDEST PUSH32 0x44656372656D656E74206578636565647320636F756E7465722076616C756500 PUSH0 DUP3 ADD MSTORE POP JUMP JUMPDEST PUSH0 PUSH2 0x51A PUSH1 0x1F DUP4 PUSH2 0x3E0 JUMP JUMPDEST SWAP2 POP PUSH2 0x525 DUP3 PUSH2 0x4E6 JUMP JUMPDEST PUSH1 0x20 DUP3 ADD SWAP1 POP SWAP2 SWAP1 POP JUMP JUMPDEST PUSH0 PUSH1 0x20 DUP3 ADD SWAP1 POP DUP2 DUP2 SUB PUSH0 DUP4 ADD MSTORE PUSH2 0x547 DUP2 PUSH2 0x50E JUMP JUMPDEST SWAP1 POP SWAP2 SWAP1 POP JUMP JUMPDEST PUSH32 0x4E487B7100000000000000000000000000000000000000000000000000000000 PUSH0 MSTORE PUSH1 0x11 PUSH1 0x4 MSTORE PUSH1 0x24 PUSH0 REVERT JUMPDEST PUSH0 PUSH2 0x585 DUP3 PUSH2 0x302 JUMP JUMPDEST SWAP2 POP PUSH2 0x590 DUP4 PUSH2 0x302 JUMP JUMPDEST SWAP3 POP DUP3 DUP3 SUB SWAP1 POP DUP2 DUP2 GT ISZERO PUSH2 0x5A8 JUMPI PUSH2 0x5A7 PUSH2 0x54E JUMP JUMPDEST JUMPDEST SWAP3 SWAP2 POP POP JUMP JUMPDEST PUSH0 PUSH1 0x60 DUP3 ADD SWAP1 POP PUSH2 0x5C1 PUSH0 DUP4 ADD DUP7 PUSH2 0x360 JUMP JUMPDEST PUSH2 0x5CE PUSH1 0x20 DUP4 ADD DUP6 PUSH2 0x360 JUMP JUMPDEST PUSH2 0x5DB PUSH1 0x40 DUP4 ADD DUP5 PUSH2 0x360 JUMP JUMPDEST SWAP5 SWAP4 POP POP POP POP JUMP JUMPDEST PUSH0 PUSH2 0x5ED DUP3 PUSH2 0x302 JUMP JUMPDEST SWAP2 POP PUSH2 0x5F8 DUP4 PUSH2 0x302 JUMP JUMPDEST SWAP3 POP DUP3 DUP3 ADD SWAP1 POP DUP1 DUP3 GT ISZERO PUSH2 0x610 JUMPI PUSH2 0x60F PUSH2 0x54E JUMP JUMPDEST JUMPDEST SWAP3 SWAP2 POP POP JUMP INVALID LOG2 PUSH5 0x6970667358 0x22 SLT KECCAK256 PUSH27 0xA495CBAAAEFC9EC99455F866BAD12E9668A105974C63B81024B199 PUSH16 0x691AE764736F6C634300082100330000 "
				},
				"gasEstimates": {
					"creation": {
						"codeDepositCost": "322400",
						"executionCost": "24625",
						"totalCost": "347025"
					},
					"external": {
						"decrement(uint256)": "infinite",
						"getCounter()": "2453",
						"increment(uint256)": "infinite",
						"owner()": "2552"
					}
				},
				"methodIdentifiers": {
					"decrement(uint256)": "3a9ebefd",
					"getCounter()": "8ada066e",
					"increment(uint256)": "7cf5dab0",
					"owner()": "8da5cb5b"
				}
			},
			"storageLayout": {
				"storage": [
					{
						"astId": 3,
						"contract": "contracts/SecureCounter.sol:SecureCounter",
						"label": "counter",
						"offset": 0,
						"slot": "0",
						"type": "t_uint256"
					},
					{
						"astId": 5,
						"contract": "contracts/SecureCounter.sol:SecureCounter",
						"label": "owner",
						"offset": 0,
						"slot": "1",
						"type": "t_address"
					}
				],
				"types": {
					"t_address": {
						"encoding": "inplace",
						"label": "address",
						"numberOfBytes": "20"
					},
					"t_uint256": {
						"encoding": "inplace",
						"label": "uint256",
						"numberOfBytes": "32"
					}
				}
			},
			"userdoc": {
				"kind": "user",
				"methods": {},
				"version": 1
			}
		}
	}
}