{
	"SecureCounter.sol": {
		"SecureCounter": {
			"abi": [
				{
					"anonymous": false,
					"inputs": [
						{
							"indexed": false,
							"internalType": "uint256",
							"name": "oldValue",
							"type": "uint256"
						},
						{
							"indexed": false,
							"internalType": "uint256",
							"name": "newValue",
							"type": "uint256"
						},
						{
							"indexed": false,
							"internalType": "uint256",
							"name": "amount",
							"type": "uint256"
						}
					],
					"name": "Incremented",
					"type": "event"
				},
				{
					"inputs": [],
					"name": "current",
					"outputs": [
						{
							"internalType": "uint256",
							"name": "",
							"type": "uint256"
						}
					],
					"stateMutability": "view",
					"type": "function"
				},
				{
					"inputs": [
						{
							"internalType": "uint256",
							"name": "amount",
							"type": "uint256"
						}
					],
					"name": "increment",
					"outputs": [],
					"stateMutability": "nonpayable",
					"type": "function"
				}
			],
			"devdoc": {
				"kind": "dev",
				"methods": {},
				"version": 1
			},
			"evm": {
				"assembly": "    /* \"SecureCounter.sol\":61:528  contract SecureCounter {... */\n  mstore(0x40, 0x80)\n  callvalue\n  dup1\n  iszero\n  tag_1\n  jumpi\n  revert(0x00, 0x00)\ntag_1:\n  pop\n  dataSize(sub_0)\n  dup1\n  dataOffset(sub_0)\n  0x00\n  codecopy\n  0x00\n  return\nstop\n\nsub_0: assembly {\n        /* \"SecureCounter.sol\":61:528  contract SecureCounter {... */\n      mstore(0x40, 0x80)\n      callvalue\n      dup1\n      iszero\n      tag_1\n      jumpi\n      revert(0x00, 0x00)\n    tag_1:\n      pop\n      jumpi(tag_2, lt(calldatasize, 0x04))\n      shr(0xe0, calldataload(0x00))\n      dup1\n      0x7cf5dab0\n      eq\n      tag_3\n      jumpi\n      dup1\n      0x9fa6a6e3\n      eq\n      tag_4\n      jumpi\n    tag_2:\n      revert(0x00, 0x00)\n        /* \"SecureCounter.sol\":291:525  function increment(uint256 amount) external {... */\n    tag_3:\n      tag_5\n      0x04\n      dup1\n      calldatasize\n      sub\n      dup2\n      add\n      swap1\n      tag_6\n      swap2\n      swap1\n      tag_7\n      jump\t// in\n    tag_6:\n      tag_8\n      jump\t// in\n    tag_5:\n      stop\n        /* \"SecureCounter.sol\":200:283  function current() external view returns (uint256) {... */\n    tag_4:\n      tag_9\n      tag_10\n      jump\t// in\n    tag_9:\n      mload(0x40)\n      tag_11\n      swap2\n      swap1\n      tag_12\n      jump\t// in\n    tag_11:\n      mload(0x40)\n      dup1\n      swap2\n      sub\n      swap1\n      return\n        /* \"SecureCounter.sol\":291:525  function increment(uint256 amount) external {... */\n    tag_8:\n        /* \"SecureCounter.sol\":363:364  0 */\n      0x00\n        /* \"SecureCounter.sol\":354:360  amount */\n      dup2\n        /* \"SecureCounter.sol\":354:364  amount > 0 */\n      gt\n        /* \"SecureCounter.sol\":346:401  require(amount > 0, \"Amount must be greater than zero\") */\n      tag_14\n      jumpi\n      mload(0x40)\n      0x08c379a000000000000000000000000000000000000000000000000000000000\n      dup2\n      mstore\n      0x04\n      add\n      tag_15\n      swap1\n      tag_16\n      jump\t// in\n    tag_15:\n      mload(0x40)\n      dup1\n      swap2\n      sub\n      swap1\n      revert\n    tag_14:\n        /* \"SecureCounter.sol\":412:428  uint256 oldValue */\n      0x00\n        /* \"SecureCounter.sol\":431:437  _count */\n      sload(0x00)\n        /* \"SecureCounter.sol\":412:437  uint256 oldValue = _count */\n      swap1\n      pop\n        /* \"SecureCounter.sol\":458:464  amount */\n      dup2\n        /* \"SecureCounter.sol\":448:454  _count */\n      0x00\n      0x00\n        /* \"SecureCounter.sol\":448:464  _count += amount */\n      dup3\n      dup3\n      sload\n      tag_17\n      swap2\n      swap1\n      tag_18\n      jump\t// in\n    tag_17:\n      swap3\n      pop\n      pop\n      dup2\n      swap1\n      sstore\n      pop\n        /* \"SecureCounter.sol\":480:517  Incremented(oldValue, _count, amount) */\n      0x2c08326abb961e8aab2ddebdef941261bcb1ae0623171723c69769d16ba0d573\n        /* \"SecureCounter.sol\":492:500  oldValue */\n      dup2\n        /* \"SecureCounter.sol\":502:508  _count */\n      sload(0x00)\n        /* \"SecureCounter.sol\":510:516  amount */\n      dup5\n        /* \"SecureCounter.sol\":480:517  Incremented(oldValue, _count, amount) */\n      mload(0x40)\n      tag_19\n      swap4\n      swap3\n      swap2\n      swap1\n      tag_20\n      jump\t// in\n    tag_19:\n      mload(0x40)\n      dup1\n      swap2\n      sub\n      swap1\n      log1\n        /* \"SecureCounter.sol\":335:525  {... */\n      pop\n        /* \"SecureCounter.sol\":291:525  function increment(uint256 amount) external {... */\n      pop\n      jump\t// out\n        /* \"SecureCounter.sol\":200:283  function current() external view returns (uint256) {... */\n    tag_10:\n        /* \"SecureCounter.sol\":242:249  uint256 */\n      0x00\n        /* \"SecureCounter.sol\":269:275  _count */\n      sload(0x00)\n        /* \"SecureCounter.sol\":262:275  return _count */\n      swap1\n      pop\n        /* \"SecureCounter.sol\":200:283  function current() external view returns (uint256) {... */\n      swap1\n      jump\t// out\n        /* \"#utility.yul\":88:205   */\n    tag_23:\n        /* \"#utility.yul\":197:198   */\n      0x00\n        /* \"#utility.yul\":194:195   */\n      0x00\n        /* \"#utility.yul\":187:199   */\n      revert\n        /* \"#utility.yul\":334:411   */\n    tag_25:\n        /* \"#utility.yul\":371:378   */\n      0x00\n        /* \"#utility.yul\":400:405   */\n      dup2\n        /* \"#utility.yul\":389:405   */\n      swap1\n      pop\n        /* \"#utility.yul\":334:411   */\n      swap2\n      swap1\n      pop\n      jump\t// out\n        /* \"#utility.yul\":417:539   */\n    tag_26:\n        /* \"#utility.yul\":490:514   */\n      tag_39\n        /* \"#utility.yul\":508:513   */\n      dup2\n        /* \"#utility.yul\":490:514   */\n      tag_25\n      jump\t// in\n    tag_39:\n        /* \"#utility.yul\":483:488   */\n      dup2\n        /* \"#utility.yul\":480:515   */\n      eq\n        /* \"#utility.yul\":470:533   */\n      tag_40\n      jumpi\n        /* \"#utility.yul\":529:530   */\n      0x00\n        /* \"#utility.yul\":526:527   */\n      0x00\n        /* \"#utility.yul\":519:531   */\n      revert\n        /* \"#utility.yul\":470:533   */\n    tag_40:\n        /* \"#utility.yul\":417:539   */\n      pop\n      jump\t// out\n        /* \"#utility.yul\":545:684   */\n    tag_27:\n        /* \"#utility.yul\":591:596   */\n      0x00\n        /* \"#utility.yul\":629:635   */\n      dup2\n        /* \"#utility.yul\":616:636   */\n      calldataload\n        /* \"#utility.yul\":607:636   */\n      swap1\n      pop\n        /* \"#utility.yul\":645:678   */\n      tag_42\n        /* \"#utility.yul\":672:677   */\n      dup2\n        /* \"#utility.yul\":645:678   */\n      tag_26\n      jump\t// in\n    tag_42:\n        /* \"#utility.yul\":545:684   */\n      swap3\n      swap2\n      pop\n      pop\n      jump\t// out\n        /* \"#utility.yul\":690:1019   */\n    tag_7:\n        /* \"#utility.yul\":749:755   */\n      0x00\n        /* \"#utility.yul\":798:800   */\n      0x20\n        /* \"#utility.yul\":786:795   */\n      dup3\n        /* \"#utility.yul\":777:784   */\n      dup5\n        /* \"#utility.yul\":773:796   */\n      sub\n        /* \"#utility.yul\":769:801   */\n      slt\n        /* \"#utility.yul\":766:885   */\n      iszero\n      tag_44\n      jumpi\n        /* \"#utility.yul\":804:883   */\n      tag_45\n      tag_23\n      jump\t// in\n    tag_45:\n        /* \"#utility.yul\":766:885   */\n    tag_44:\n        /* \"#utility.yul\":924:925   */\n      0x00\n        /* \"#utility.yul\":949:1002   */\n      tag_46\n        /* \"#utility.yul\":994:1001   */\n      dup5\n        /* \"#utility.yul\":985:991   */\n      dup3\n        /* \"#utility.yul\":974:983   */\n      dup6\n        /* \"#utility.yul\":970:992   */\n      add\n        /* \"#utility.yul\":949:1002   */\n      tag_27\n      jump\t// in\n    tag_46:\n        /* \"#utility.yul\":939:1002   */\n      swap2\n      pop\n        /* \"#utility.yul\":895:1012   */\n      pop\n        /* \"#utility.yul\":690:1019   */\n      swap3\n      swap2\n      pop\n      pop\n      jump\t// out\n        /* \"#utility.yul\":1025:1143   */\n    tag_28:\n        /* \"#utility.yul\":1112:1136   */\n      tag_48\n        /* \"#utility.yul\":1130:1135   */\n      dup2\n        /* \"#utility.yul\":1112:1136   */\n      tag_25\n      jump\t// in\n    tag_48:\n        /* \"#utility.yul\":1107:1110   */\n      dup3\n        /* \"#utility.yul\":1100:1137   */\n      mstore\n        /* \"#utility.yul\":1025:1143   */\n      pop\n      pop\n      jump\t// out\n        /* \"#utility.yul\":1149:1371   */\n    tag_12:\n        /* \"#utility.yul\":1242:1246   */\n      0x00\n        /* \"#utility.yul\":1280:1282   */\n      0x20\n        /* \"#utility.yul\":1269:1278   */\n      dup3\n        /* \"#utility.yul\":1265:1283   */\n      add\n        /* \"#utility.yul\":1257:1283   */\n      swap1\n      pop\n        /* \"#utility.yul\":1293:1364   */\n      tag_50\n        /* \"#utility.yul\":1361:1362   */\n      0x00\n        /* \"#utility.yul\":1350:1359   */\n      dup4\n        /* \"#utility.yul\":1346:1363   */\n      add\n        /* \"#utility.yul\":1337:1343   */\n      dup5\n        /* \"#utility.yul\":1293:1364   */\n      tag_28\n      jump\t// in\n    tag_50:\n        /* \"#utility.yul\":1149:1371   */\n      swap3\n      swap2\n      pop\n      pop\n      jump\t// out\n        /* \"#utility.yul\":1377:1546   */\n    tag_29:\n        /* \"#utility.yul\":1461:1472   */\n      0x00\n        /* \"#utility.yul\":1495:1501   */\n      dup3\n        /* \"#utility.yul\":1490:1493   */\n      dup3\n        /* \"#utility.yul\":1483:1502   */\n      mstore\n        /* \"#utility.yul\":1535:1539   */\n      0x20\n        /* \"#utility.yul\":1530:1533   */\n      dup3\n        /* \"#utility.yul\":1526:1540   */\n      add\n        /* \"#utility.yul\":1511:1540   */\n      swap1\n      pop\n        /* \"#utility.yul\":1377:1546   */\n      swap3\n      swap2\n      pop\n      pop\n      jump\t// out\n        /* \"#utility.yul\":1552:1734   */\n    tag_30:\n        /* \"#utility.yul\":1692:1726   */\n      0x416d6f756e74206d7573742062652067726561746572207468616e207a65726f\n        /* \"#utility.yul\":1688:1689   */\n      0x00\n        /* \"#utility.yul\":1680:1686   */\n      dup3\n        /* \"#utility.yul\":1676:1690   */\n      add\n        /* \"#utility.yul\":1669:1727   */\n      mstore\n        /* \"#utility.yul\":1552:1734   */\n      pop\n      jump\t// out\n        /* \"#utility.yul\":1740:2106   */\n    tag_31:\n        /* \"#utility.yul\":1882:1885   */\n      0x00\n        /* \"#utility.yul\":1903:1970   */\n      tag_54\n        /* \"#utility.yul\":1967:1969   */\n      0x20\n        /* \"#utility.yul\":1962:1965   */\n      dup4\n        /* \"#utility.yul\":1903:1970   */\n      tag_29\n      jump\t// in\n    tag_54:\n        /* \"#utility.yul\":1896:1970   */\n      swap2\n      pop\n        /* \"#utility.yul\":1979:2072   */\n      tag_55\n        /* \"#utility.yul\":2068:2071   */\n      dup3\n        /* \"#utility.yul\":1979:2072   */\n      tag_30\n      jump\t// in\n    tag_55:\n        /* \"#utility.yul\":2097:2099   */\n      0x20\n        /* \"#utility.yul\":2092:2095   */\n      dup3\n        /* \"#utility.yul\":2088:2100   */\n      add\n        /* \"#utility.yul\":2081:2100   */\n      swap1\n      pop\n        /* \"#utility.yul\":1740:2106   */\n      swap2\n      swap1\n      pop\n      jump\t// out\n        /* \"#utility.yul\":2112:2531   */\n    tag_16:\n        /* \"#utility.yul\":2278:2282   */\n      0x00\n        /* \"#utility.yul\":2316:2318   */\n      0x20\n        /* \"#utility.yul\":2305:2314   */\n      dup3\n        /* \"#utility.yul\":2301:2319   */\n      add\n        /* \"#utility.yul\":2293:2319   */\n      swap1\n      pop\n        /* \"#utility.yul\":2365:2374   */\n      dup2\n        /* \"#utility.yul\":2359:2363   */\n      dup2\n        /* \"#utility.yul\":2355:2375   */\n      sub\n        /* \"#utility.yul\":2351:2352   */\n      0x00\n        /* \"#utility.yul\":2340:2349   */\n      dup4\n        /* \"#utility.yul\":2336:2353   */\n      add\n        /* \"#utility.yul\":2329:2376   */\n      mstore\n        /* \"#utility.yul\":2393:2524   */\n      tag_57\n        /* \"#utility.yul\":2519:2523   */\n      dup2\n        /* \"#utility.yul\":2393:2524   */\n      tag_31\n      jump\t// in\n    tag_57:\n        /* \"#utility.yul\":2385:2524   */\n      swap1\n      pop\n        /* \"#utility.yul\":2112:2531   */\n      swap2\n      swap1\n      pop\n      jump\t// out\n        /* \"#utility.yul\":2537:2717   */\n    tag_32:\n        /* \"#utility.yul\":2585:2662   */\n      0x4e487b7100000000000000000000000000000000000000000000000000000000\n        /* \"#utility.yul\":2582:2583   */\n      0x00\n        /* \"#utility.yul\":2575:2663   */\n      mstore\n        /* \"#utility.yul\":2682:2686   */\n      0x11\n        /* \"#utility.yul\":2679:2680   */\n      0x04\n        /* \"#utility.yul\":2672:2687   */\n      mstore\n        /* \"#utility.yul\":2706:2710   */\n      0x24\n        /* \"#utility.yul\":2703:2704   */\n      0x00\n        /* \"#utility.yul\":2696:2711   */\n      revert\n        /* \"#utility.yul\":2723:2914   */\n    tag_18:\n        /* \"#utility.yul\":2763:2766   */\n      0x00\n        /* \"#utility.yul\":2782:2802   */\n      tag_60\n        /* \"#utility.yul\":2800:2801   */\n      dup3\n        /* \"#utility.yul\":2782:2802   */\n      tag_25\n      jump\t// in\n    tag_60:\n        /* \"#utility.yul\":2777:2802   */\n      swap2\n      pop\n        /* \"#utility.yul\":2816:2836   */\n      tag_61\n        /* \"#utility.yul\":2834:2835   */\n      dup4\n        /* \"#utility.yul\":2816:2836   */\n      tag_25\n      jump\t// in\n    tag_61:\n        /* \"#utility.yul\":2811:2836   */\n      swap3\n      pop\n        /* \"#utility.yul\":2859:2860   */\n      dup3\n        /* \"#utility.yul\":2856:2857   */\n      dup3\n        /* \"#utility.yul\":2852:2861   */\n      add\n        /* \"#utility.yul\":2845:2861   */\n      swap1\n      pop\n        /* \"#utility.yul\":2880:2883   */\n      dup1\n        /* \"#utility.yul\":2877:2878   */\n      dup3\n        /* \"#utility.yul\":2874:2884   */\n      gt\n        /* \"#utility.yul\":2871:2907   */\n      iszero\n      tag_62\n      jumpi\n        /* \"#utility.yul\":2887:2905   */\n      tag_63\n      tag_32\n      jump\t// in\n    tag_63:\n        /* \"#utility.yul\":2871:2907   */\n    tag_62:\n        /* \"#utility.yul\":2723:2914   */\n      swap3\n      swap2\n      pop\n      pop\n      jump\t// out\n        /* \"#utility.yul\":2920:3362   */\n    tag_20:\n        /* \"#utility.yul\":3069:3073   */\n      0x00\n        /* \"#utility.yul\":3107:3109   */\n      0x60\n        /* \"#utility.yul\":3096:3105   */\n      dup3\n        /* \"#utility.yul\":3092:3110   */\n      add\n        /* \"#utility.yul\":3084:3110   */\n      swap1\n      pop\n        /* \"#utility.yul\":3120:3191   */\n      tag_65\n        /* \"#utility.yul\":3188:3189   */\n      0x00\n        /* \"#utility.yul\":3177:3186   */\n      dup4\n        /* \"#utility.yul\":3173:3190   */\n      add\n        /* \"#utility.yul\":3164:3170   */\n      dup7\n        /* \"#utility.yul\":3120:3191   */\n      tag_28\n      jump\t// in\n    tag_65:\n        /* \"#utility.yul\":3201:3273   */\n      tag_66\n        /* \"#utility.yul\":3269:3271   */\n      0x20\n        /* \"#utility.yul\":3258:3267   */\n      dup4\n        /* \"#utility.yul\":3254:3272   */\n      add\n        /* \"#utility.yul\":3245:3251   */\n      dup6\n        /* \"#utility.yul\":3201:3273   */\n      tag_28\n      jump\t// in\n    tag_66:\n        /* \"#utility.yul\":3283:3355   */\n      tag_67\n        /* \"#utility.yul\":3351:3353   */\n      0x40\n        /* \"#utility.yul\":3340:3349   */\n      dup4\n        /* \"#utility.yul\":3336:3354   */\n      add\n        /* \"#utility.yul\":3327:3333   */\n      dup5\n        /* \"#utility.yul\":3283:3355   */\n      tag_28\n      jump\t// in\n    tag_67:\n        /* \"#utility.yul\":2920:3362   */\n      swap5\n      swap4\n      pop\n      pop\n      pop\n      pop\n      jump\t// out\n\n    auxdata: 0xa264697066735822122013c62b74e779cb31ba87a4b294526900bf5e55b005df67ac1e5c391be655c2fb64736f6c63430008210033\n}\n",
				"bytecode": {
					"linkReferences": {},
					"object": "6080604052348015600e575f5ffd5b506102e58061001c5f395ff3fe608060405234801561000f575f5ffd5b5060043610610034575f3560e01c80637cf5dab0146100385780639fa6a6e314610054575b5f5ffd5b610052600480360381019061004d919061014f565b610072565b005b61005c610110565b6040516100699190610189565b60405180910390f35b5f81116100b4576040517f08c379a00000000000000000000000000000000000000000000000000000000081526004016100ab906101fc565b60405180910390fd5b5f5f549050815f5f8282546100c99190610247565b925050819055507f2c08326abb961e8aab2ddebdef941261bcb1ae0623171723c69769d16ba0d573815f54846040516101049392919061027a565b60405180910390a15050565b5f5f54905090565b5f5ffd5b5f819050919050565b61012e8161011c565b8114610138575f5ffd5b50565b5f8135905061014981610125565b92915050565b5f6020828403121561016457610163610118565b5b5f6101718482850161013b565b91505092915050565b6101838161011c565b82525050565b5f60208201905061019c5f83018461017a565b92915050565b5f82825260208201905092915050565b7f416d6f756e74206d7573742062652067726561746572207468616e207a65726f5f82015250565b5f6101e66020836101a2565b91506101f1826101b2565b602082019050919050565b5f6020820190508181035f830152610213816101da565b9050919050565b7f4e487b71000000000000000000000000000000000000000000000000000000005f52601160045260245ffd5b5f6102518261011c565b915061025c8361011c565b92508282019050808211156102745761027361021a565b5b92915050565b5f60608201905061028d5f83018661017a565b61029a602083018561017a565b6102a7604083018461017a565b94935050505056fea264697066735822122013c62b74e779cb31ba87a4b294526900bf5e55b005df67ac1e5c391be655c2fb64736f6c63430008210033",
					"opcodes": "PUSH1 0x80 PUSH1 0x40 MSTORE CALLVALUE DUP1 ISZERO PUSH1 0xE JUMPI PUSH0 PUSH0 REVERT JUMPDEST POP PUSH2 0x2E5 DUP1 PUSH2 0x1C PUSH0 CODECOPY PUSH0 RETURN INVALID PUSH1 0x80 PUSH1 0x40 MSTORE CALLVALUE DUP1 ISZERO PUSH2 0xF JUMPI PUSH0 PUSH0 REVERT JUMPDEST POP PUSH1 0x4 CALLDATASIZE LT PUSH2 0x34 JUMPI PUSH0 CALLDATALOAD PUSH1 0xE0 SHR DUP1 PUSH4 0x7CF5DAB0 EQ PUSH2 0x38 JUMPI DUP1 PUSH4 0x9FA6A6E3 EQ PUSH2 0x54 JUMPI JUMPDEST PUSH0 PUSH0 REVERT JUMPDEST PUSH2 0x52 PUSH1 0x4 DUP1 CALLDATASIZE SUB DUP2 ADD SWAP1 PUSH2 0x4D SWAP2 SWAP1 PUSH2 0x14F JUMP JUMPDEST PUSH2 0x72 JUMP JUMPDEST STOP JUMPDEST PUSH2 0x5C PUSH2 0x110 JUMP JUMPDEST PUSH1 0x40 MLOAD PUSH2 0x69 SWAP2 SWAP1 PUSH2 0x189 JUMP JUMPDEST PUSH1 0x40 MLOAD DUP1 SWAP2 SUB SWAP1 RETURN JUMPDEST PUSH0 DUP2 GT PUSH2 0xB4 JUMPI PUSH1 0x40 MLOAD PUSH32 0x8C379A000000000000000000000000000000000000000000000000000000000 DUP2 MSTORE PUSH1 0x4 ADD PUSH2 0xAB SWAP1 PUSH2 0x1FC JUMP JUMPDEST PUSH1 0x40 MLOAD DUP1 SWAP2 SUB SWAP1 REVERT JUMPDEST PUSH0 PUSH0 SLOAD SWAP1 POP DUP2 PUSH0 PUSH0 DUP3 DUP3 SLOAD PUSH2 0xC9 SWAP2 SWAP1 PUSH2 0x247 JUMP JUMPDEST SWAP3 POP POP DUP2 SWAP1 SSTORE POP PUSH32 0x2C08326ABB961E8AAB2DDEBDEF941261BCB1AE0623171723C69769D16BA0D573 DUP2 PUSH0 SLOAD DUP5 PUSH1 0x40 MLOAD PUSH2 0x104 SWAP4 SWAP3 SWAP2 SWAP1 PUSH2 0x27A JUMP JUMPDEST PUSH1 0x40 MLOAD DUP1 SWAP2 SUB SWAP1 LOG1 POP POP JUMP JUMPDEST PUSH0 PUSH0 SLOAD SWAP1 POP SWAP1 JUMP JUMPDEST PUSH0 PUSH0 REVERT JUMPDEST PUSH0 DUP2 SWAP1 POP SWAP2 SWAP1 POP JUMP JUMPDEST PUSH2 0x12E DUP2 PUSH2 0x11C JUMP JUMPDEST DUP2 EQ PUSH2 0x138 JUMPI PUSH0 PUSH0 REVERT JUMPDEST POP JUMP JUMPDEST PUSH0 DUP2 CALLDATALOAD SWAP1 POP PUSH2 0x149 DUP2 PUSH2 0x125 JUMP JUMPDEST SWAP3 SWAP2 POP POP JUMP JUMPDEST PUSH0 PUSH1 0x20 DUP3 DUP5 SUB SLT ISZERO PUSH2 0x164 JUMPI PUSH2 0x163 PUSH2 0x118 JUMP JUMPDEST JUMPDEST PUSH0 PUSH2 0x171 DUP5 DUP3 DUP6 ADD PUSH2 0x13B JUMP JUMPDEST SWAP2 POP POP SWAP3 SWAP2 POP POP JUMP JUMPDEST PUSH2 0x183 DUP2 PUSH2 0x11C JUMP JUMPDEST DUP3 MSTORE POP POP JUMP JUMPDEST PUSH0 PUSH1 0x20 DUP3 ADD SWAP1 POP PUSH2 0x19C PUSH0 DUP4 ADD DUP5 PUSH2 0x17A JUMP JUMPDEST SWAP3 SWAP2 POP POP JUMP JUMPDEST PUSH0 DUP3 DUP3 MSTORE PUSH1 0x20 DUP3 ADD SWAP1 POP SWAP3 SWAP2 POP POP JUMP JUMPDEST PUSH32 0x416D6F756E74206D7573742062652067726561746572207468616E207A65726F PUSH0 DUP3 ADD MSTORE POP JUMP JUMPDEST PUSH0 PUSH2 0x1E6 PUSH1 0x20 DUP4 PUSH2 0x1A2 JUMP JUMPDEST SWAP2 POP PUSH2 0x1F1 DUP3 PUSH2 0x1B2 JUMP JUMPDEST PUSH1 0x20 DUP3 ADD SWAP1 POP SWAP2 SWAP1 POP JUMP JUMPDEST PUSH0 PUSH1 0x20 DUP3 ADD SWAP1 POP DUP2 DUP2 SUB PUSH0 DUP4 ADD MSTORE PUSH2 0x213 DUP2 PUSH2 0x1DA JUMP JUMPDEST SWAP1 POP SWAP2 SWAP1 POP JUMP JUMPDEST PUSH32 0x4E487B7100000000000000000000000000000000000000000000000000000000 PUSH0 MSTORE PUSH1 0x11 PUSH1 0x4 MSTORE PUSH1 0x24 PUSH0 REVERT JUMPDEST PUSH0 PUSH2 0x251 DUP3 PUSH2 0x11C JUMP JUMPDEST SWAP2 POP PUSH2 0x25C DUP4 PUSH2 0x11C JUMP JUMPDEST SWAP3 POP DUP3 DUP3 ADD SWAP1 POP DUP1 DUP3 GT ISZERO PUSH2 0x274 JUMPI PUSH2 0x273 PUSH2 0x21A JUMP JUMPDEST JUMPDEST SWAP3 SWAP2 POP POP JUMP JUMPDEST PUSH0 PUSH1 0x60 DUP3 ADD SWAP1 POP PUSH2 0x28D PUSH0 DUP4 ADD DUP7 PUSH2 0x17A JUMP JUMPDEST PUSH2 0x29A PUSH1 0x20 DUP4 ADD DUP6 PUSH2 0x17A JUMP JUMPDEST PUSH2 0x2A7 PUSH1 0x40 DUP4 ADD DUP5 PUSH2 0x17A JUMP JUMPDEST SWAP5 SWAP4 POP POP POP POP JUMP INVALID LOG2 PUSH5 0x6970667358 0x22 SLT KECCAK256 SGT 0xC6 0x2B PUSH21 0xE779CB31BA87A4B294526900BF5E55B005DF67AC1E TLOAD CODECOPY SHL DUPN 0x55 0xC2 EXTSTATICCALL PUSH5 0x736F6C6343 STOP ADDMOD 0x21 STOP CALLER "
				},
				"gasEstimates": {
					"creation": {
						"codeDepositCost": "148200",
						"executionCost": "194",
						"totalCost": "148394"
					},
					"external": {
						"current()": "2431",
						"increment(uint256)": "infinite"
					}
				},
				"methodIdentifiers": {
					"current()": "9fa6a6e3",
					"increment(uint256)": "7cf5dab0"
				}
			},
			"storageLayout": {
				"storage": [
					{
						"astId": 3,
						"contract": "SecureCounter.sol:SecureCounter",
						"label": "_count",
						"offset": 0,
						"slot": "0",
						"type": "t_uint256"
					}
				],
				"types": {
					"t_uint256": {
						"encoding": "inplace",
						"label": "uint256",
						"numberOfBytes": "32"
					}
				}
			},
			"userdoc": {
				"kind": "user",
				"methods": {},
				"version": 1
			}
		}
	}
}